:100000000C9434000C9451000C9451000C94510049
:100010000C9451000C9451000C9451000C9451001C
:100020000C9451000C9451000C9451000C9451000C
:100030000C9451000C9451000C9451000C945100FC
:100040000C9451000C9451000C9451000C945100EC
:100050000C9451000C9451000C9451000C945100DC
:100060000C9451000C94510011241FBECFEFD8E026
:10007000DEBFCDBF14E0A0E0B1E0EEEFFCE002C0D7
:1000800005900D92AE3FB107D9F725E0AEEFB4E091
:1000900001C01D92A130B207E1F70E94C6020C9484
:1000A0007D060C94000082EC80937C0087E88093AE
:1000B0007A00089580917A00806480937A0080911C
:1000C0007A0084FFFCCF80917A00806180937A006F
:1000D00080917800909179000895E9EBF0E08081BB
:1000E0008C7F808383E18093B80008958093FE0421
:1000F0008091BC00846A8093BC008091BC0087FF23
:10010000FCCF8091B900887F883011F0803111F4E4
:100110008FEF08958EEF0895880F9091FE04892B3C
:100120008093BB008091BC008F7D8093BC00809148
:10013000BC0080688093BC008091BC0087FFFCCF2E
:100140008091FE04811107C08091B900887F8831B9
:1001500079F08EEF0895813069F4E091B900E87F7D
:10016000E853E131B0F7F0E0EF5EFE4F8081089593
:100170008FEF089580E008958093BB008091BC00CC
:1001800080688093BC008091BC0087FFFCCFE09129
:10019000B900E87FE852E13128F4F0E0E050FF4F89
:1001A000808108958EEF089583E3815011F48CEFE0
:1001B00008959091BC0097FFF8CF8DEF08958111BD
:1001C00015C08091BC0080648093BC008091BC000D
:1001D00080688093BC000E94D4008091B900887F21
:1001E000803541F0883531F08EEF08958091BC0064
:1001F0008F7BEACF8091BB0008958091BC0080691D
:100200008093BC008091BC0084FFFCCF0895CF9305
:10021000C82F80E00E9476008C2FCF910C948C0028
:100220000C94FD000C94BC00CF93C82F8CE30E946B
:10023000070180E00E94BC008C2F0E94BC00CF917F
:100240000C94FD00CF93DF9381E20E94140180E0C3
:100250000E9414018FE70E94140182E20E9414019F
:1002600080E00E94140187E00E9414018CE30E9448
:10027000070180E40E94BC00C0E0D4E080E00E945E
:10028000BC002197D9F781E20E94140180E00E940E
:1002900014018FE70E94140182E20E94140180E0A1
:1002A0000E94140187E00E9414018CE30E94070160
:1002B00080E4DF91CF910C94BC000E946D008EEA27
:1002C0000E94140185ED0E94140180E80E9414012F
:1002D00088EA0E9414018FE30E94140183ED0E94BA
:1002E000140180E00E94140180E40E9414018DE852
:1002F0000E94140184E10E94140180E20E94140112
:1003000080E00E94140181EA0E94140188EC0E949E
:1003100014018AED0E94140182E10E94140181E817
:100320000E9414018FEC0E94140189ED0E941401B7
:1003300081EF0E9414018BED0E94140180E40E9461
:10034000140184EA0E94140186EA0E9414018FEAD3
:100350000E9414010C942201CF93DF93C82FD62F53
:10036000883000F567FD1EC08093FF046093000590
:1003700081E20E9414018D2F0E9414018FE70E94D8
:10038000140182E20E9414018C2F0E94140187E064
:100390000E9414018CE30E94070180E4DF91CF9159
:1003A0000C94BC00DF91CF910895883028F480939D
:1003B000FF0460E00C94AC0108958091FF048F5F0E
:1003C00087708093FF0460E00C94AC011F93CF937F
:1003D000DF93C82F809100058637F0F4CA30E1F032
:1003E000C0528AE0C89FE0011124CE5DDE4F10E0CC
:1003F00089910E94BC00809100058F5F8093000569
:100400001F5F1A30A9F780E00E94BC0080910005B0
:100410008F5F8093000504C00E94DD01CA3001F7A0
:10042000DF91CF911F910895CF93DF93EC018991D4
:10043000811103C0DF91CF9108950E94E601F7CFAB
:100440002F923F924F925F926F927F928F929F92E4
:10045000AF92BF92CF92DF92EF92FF920F931F93D2
:10046000CF93DF93CDB7DEB72A970FB6F894DEBFF0
:100470000FBECDBF782E4A015B01122F82E07812A9
:100480003AC0022F10E0EE24E394F12C0150110940
:10049000C8F42A960FB6F894DEBF0FBECDBFDF9129
:1004A000CF911F910F91FF90EF90DF90CF90BF9071
:1004B000AF909F908F907F906F905F904F903F9004
:1004C0002F900895A701002E02C0440F551F0A94D3
:1004D000E2F7052E000C660B770B482159216A21A3
:1004E0007B2181E0452B462B472B09F480E0805D82
:1004F0000E94E601CBCF81149104A104B10429F13B
:10050000FE0131967F016F0100E0272C312C512C28
:10051000412C01131CC00E0D1F2D111D0E151F05A2
:1005200009F4B7CFF80182918F018A3068F1895CB4
:100530000E94E601F3CF80E30E94E6010F5F0117FE
:1005400009F4A7CF0A30B9F7A4CF00E0F8CF81149F
:100550009104A104B10499F0682CC501B401A20171
:1005600091010E94290449015A01729E60181124C8
:10057000F60160820F5FFFEFCF1ADF0ACACF1B3090
:1005800050F6F6011082F6CF805DD2CFCDB7DEB740
:1005900028970FB6F894DEBF0FBECDBF84E08AB9AE
:1005A0005B9A0E9453000E945D0189E1882E912C84
:1005B000A12CB12C9AE0C92ED12C29E130E03F8347
:1005C0002E8319821A821B821C820E945A00298162
:1005D0003A814B815C81280F391F411D511D2983B0
:1005E0003A834B835C834E815F81415051095F8325
:1005F0004E83452B51F769817A818B819C81A501BE
:1006000094010E942904C901B0E0A0E089839A8383
:10061000AB83BC83B901CD010E9459052DEC3CECA4
:100620004CE85FE369837A838B839C8369817A8159
:100630008B819C810E94EC052B013C012AE037ED67
:1006400043E251E469835A828B837C8269817A8197
:100650008B819C810E94B80420E030E048E452E4A1
:1006600069837A838B839C8369817A818B819C8166
:100670000E944B041B0188879E8320E030E040E10C
:1006800051E469833A828B839C8369817A818B816F
:100690009C810E94EC0520E030E040EA50E4698350
:1006A0007A838B839C8369817A818B819C810E9470
:1006B000B80420E030E040E052E469837A838B8321
:1006C0009C8369817A818B819C810E944C047B018F
:1006D0008C0120E030E040E85AE349825A826B8284
:1006E0007C8269817A818B819C810E94EC0520E06B
:1006F00030E04AE754E469837A838B839C83698181
:100700007A818B819C810E94EC052B013C0189B18F
:10071000982F98709D8320E030E040E251E483FF01
:1007200076C0E982FA820B831C8369817A818B818E
:100730009C810E94EC0569837A838B839C83698109
:100740007A818B819C810E942A056E837F8381E060
:100750000E94D50149825A826B827C8269817A81AA
:100760008B819C810E942A05AB01BC0124E08AE0B8
:100770000E94200288ED94E00E94140283E00E940F
:10078000D5018E819F81B6010E9415049A838983C9
:10079000AB0170E060E022E08AE00E9420028BED75
:1007A00094E00E94140229813A81A90170E060E07E
:1007B00021E08AE00E9420023D818DED94E031111C
:1007C00002C084EE94E00E94140220E030E04CE885
:1007D00052E4E982FA820B831C8369817A818B81DE
:1007E0009C810E94E7051816CCF45A9A85E00E9475
:1007F000D5018BEE94E00E9414024FEF59E688E198
:10080000415050408040E1F700C00000D6CE298220
:100810003A82A885AB83BE81BC8387CF5A9885E096
:100820000E94D50184EF94E0E6CFAA1BBB1B51E1E7
:1008300007C0AA1FBB1FA617B70710F0A61BB70B50
:10084000881F991F5A95A9F780959095BC01CD01F5
:100850000895A1E21A2EAA1BBB1BFD010DC0AA1F01
:10086000BB1FEE1FFF1FA217B307E407F50720F019
:10087000A21BB30BE40BF50B661F771F881F991F94
:100880001A9469F760957095809590959B01AC01DD
:10089000BD01CF0108955058BB27AA270E946304C9
:1008A0000C94AD050E949F0538F00E94A60520F02B
:1008B00039F49F3F19F426F40C949C050EF4E0954E
:1008C000E7FB0C949605E92F0E94BE0558F3BA1772
:1008D000620773078407950720F079F4A6F50C9456
:1008E000E0050EF4E0950B2EBA2FA02D0B01B901F7
:1008F00090010C01CA01A0011124FF27591B99F096
:10090000593F50F4503E68F11A16F040A22F232FA1
:10091000342F4427585FF3CF469537952795A795F1
:10092000F0405395C9F77EF41F16BA0B620B730B98
:10093000840BBAF09150A1F0FF0FBB1F661F771F09
:10094000881FC2F70EC0BA0F621F731F841F48F4BE
:10095000879577956795B795F7959E3F08F0B0CF47
:100960009395880F08F09927EE0F9795879508952E
:100970000E94CC040C94AD050E94A60558F00E947C
:100980009F0540F029F45F3F29F00C949605511122
:100990000C94E1050C949C050E94BE0568F3992314
:1009A000B1F3552391F3951B550BBB27AA2762176B
:1009B0007307840738F09F5F5F4F220F331F441F78
:1009C000AA1FA9F335D00E2E3AF0E0E832D09150AC
:1009D0005040E695001CCAF72BD0FE2F29D0660F99
:1009E000771F881FBB1F261737074807AB07B0E8DC
:1009F00009F0BB0B802DBF01FF2793585F4F3AF0E2
:100A00009E3F510578F00C9496050C94E1055F3FEC
:100A1000E4F3983ED4F3869577956795B795F79567
:100A20009F5FC9F7880F911D9695879597F908954F
:100A3000E1E0660F771F881FBB1F621773078407EB
:100A4000BA0720F0621B730B840BBA0BEE1F88F7FA
:100A5000E09508950E94C60588F09F5798F0B92F39
:100A60009927B751B0F0E1F0660F771F881F991FE3
:100A70001AF0BA95C9F714C0B13091F00E94E005A0
:100A8000B1E008950C94E005672F782F8827B85FB0
:100A900039F0B93FCCF3869577956795B395D9F73B
:100AA0003EF490958095709561957F4F8F4F9F4F45
:100AB0000895E89409C097FB3EF490958095709551
:100AC00061957F4F8F4F9F4F9923A9F0F92F96E99A
:100AD000BB279395F695879577956795B795F1110F
:100AE000F8CFFAF4BB0F11F460FF1BC06F5F7F4FAC
:100AF0008F4F9F4F16C0882311F096E911C07723BE
:100B000021F09EE8872F762F05C0662371F096E8C6
:100B1000862F70E060E02AF09A95660F771F881F95
:100B2000DAF7880F9695879597F9089597F99F6753
:100B300080E870E060E008959FEF80EC0895002465
:100B40000A941616170618060906089500240A9432
:100B500012161306140605060895092E0394000CB8
:100B600011F4882352F0BB0F40F4BF2B11F460FF47
:100B700004C06F5F7F4F8F4F9F4F089557FD905870
:100B8000440F551F59F05F3F71F04795880F97FB51
:100B9000991F61F09F3F79F087950895121613060B
:100BA0001406551FF2CF4695F1DF08C0161617063A
:100BB0001806991FF1CF869571056105089408956F
:100BC000E894BB2766277727CB0197F908950E9401
:100BD000590608F48FEF08950E94FF050C94AD05A7
:100BE0000E949F0538F00E94A60520F0952311F081
:100BF0000C9496050C949C0511240C94E1050E941C
:100C0000BE0570F3959FC1F3950F50E0551F629F8D
:100C1000F001729FBB27F00DB11D639FAA27F00D55
:100C2000B11DAA1F649F6627B00DA11D661F829F7C
:100C30002227B00DA11D621F739FB00DA11D621F61
:100C4000839FA00D611D221F749F3327A00D611D7E
:100C5000231F849F600D211D822F762F6A2F112460
:100C60009F5750409AF0F1F088234AF0EE0FFF1F93
:100C7000BB1F661F771F881F91505040A9F79E3FEA
:100C8000510580F00C9496050C94E1055F3FE4F368
:100C9000983ED4F3869577956795B795F795E79540
:100CA0009F5FC1F7FE2B880F911D9695879597F949
:100CB0000895990F0008550FAA0BE0E8FEEF1616ED
:100CC0001706E807F907C0F012161306E407F50740
:100CD00098F0621B730B840B950B39F40A2661F0B4
:100CE000232B242B252B21F408950A2609F4A14057
:0E0CF000A6958FEF811D811D0895F894FFCF0A
:100CFE00FFFEFEFEFEFEFEFEFEFEFEFEFEFEFEFE05
:100D0E00FEFEFEFEFEFEFEFEFEFFFEFEFEFEFEFEF4
:100D1E00FEFE0000000000000000000000002F009A
:100D2E0000000000000000070007000000000000A7
:100D3E00147F147F140000000000242A7F2A120062
:100D4E000000000023130864620000000000364912
:100D5E0055225000000000000005030000000000B6
:100D6E000000001C22410000000000000041221C77
:100D7E0000000000000014083E08140000000000EF
:100D8E0008083E080800000000000000A0600000F7
:100D9E0000000000080808080800000000000060BD
:100DAE006000000000000000201008040200000097
:100DBE0000003E5149453E000000000000427F40C9
:100DCE000000000000004261514946000000000092
:100DDE002141454B3100000000001814127F100015
:100DEE0000000000274545453900000000003C4A40
:100DFE0049493000000000000171090503000000A0
:100E0E0000003649494936000000000006494929CC
:100E1E001E0000000000003636000000000000003A
:100E2E0000563600000000000000081422410000A9
:100E3E0000000000141414141400000000000041FF
:100E4E0022140800000000000201510906000000F3
:100E5E000000324959513E00000000007C12111270
:100E6E007C00000000007F49494936000000000068
:100E7E003E4141412200000000007F4141221C0002
:100E8E00000000007F4949494100000000007F0931
:100E9E0009090100000000003E4149497A000000A6
:100EAE0000007F0808087F000000000000417F411D
:100EBE000000000000002040413F01000000000043
:100ECE007F0814224100000000007F404040400097
:100EDE00000000007F020C027F00000000007F0473
:100EEE0008107F00000000003E4141413E0000001E
:100EFE0000007F0909090600000000003E41512153
:100F0E005E00000000007F09192946000000000065
:100F1E004649494931000000000001017F010100EE
:100F2E00000000003F4040403F00000000001F2036
:100F3E0040201F00000000003F4038403F000000EE
:100F4E000000631408146300000000000708700816
:100F5E0007000000000061514945430000000000F9
:100F6E00007F414100000000000055AA55AA55001F
:100F7E00000000000041417F00000000000004025C
:100F8E00010204000000000040404040400000000C
:100F9E00000000030500000000000000205454541F
:100FAE007800000000007F48444438000000000034
:100FBE0038444444200000000000384444487F0078
:100FCE000000000038545454180000000000087E41
:100FDE00090102000000000018A4A4A47C00000077
:100FEE0000007F08040478000000000000447D40EB
:100FFE000000000000004080847D00000000000022
:10100E007F10284400000000000000417F400000D7
:10101E00000000007C0418047800000000007C082A
:10102E0004047800000000003844444438000000F6
:10103E000000FC24242418000000000018242418AA
:10104E00FC00000000007C08040408000000000002
:10105E0048545454200000000000043F4440200037
:10106E00000000003C4040207C00000000001C20DE
:10107E0040201C00000000003C4030403C000000BE
:10108E000000442810284400000000001CA0A0A06E
:10109E007C00000000004464544C4400000000003A
:1010AE0000107C820000000000000000FF00000025
:1010BE000000000000827C1000000000000000060E
:1010CE0009090600000000006D56002E0020446540
:1010DE006720460020446567204300546F6F204808
:0E10EE006F74210020202020202020200000F0
:00000001FF
